{
  "contractName": "DegreeVerification",
  "abi": [
    {
      "anonymous": false,
      "inputs": [
        {
          "indexed": false,
          "internalType": "bytes32",
          "name": "degreeHash",
          "type": "bytes32"
        },
        {
          "indexed": true,
          "internalType": "address",
          "name": "owner",
          "type": "address"
        }
      ],
      "name": "DegreeRevoked",
      "type": "event"
    },
    {
      "anonymous": false,
      "inputs": [
        {
          "indexed": false,
          "internalType": "bytes32",
          "name": "degreeHash",
          "type": "bytes32"
        },
        {
          "indexed": true,
          "internalType": "address",
          "name": "owner",
          "type": "address"
        },
        {
          "indexed": false,
          "internalType": "string",
          "name": "rollNo",
          "type": "string"
        },
        {
          "indexed": false,
          "internalType": "string",
          "name": "name",
          "type": "string"
        }
      ],
      "name": "DegreeUploaded",
      "type": "event"
    },
    {
      "inputs": [],
      "name": "fee",
      "outputs": [
        {
          "internalType": "uint256",
          "name": "",
          "type": "uint256"
        }
      ],
      "stateMutability": "view",
      "type": "function",
      "constant": true
    },
    {
      "inputs": [
        {
          "internalType": "bytes32",
          "name": "degreeHash",
          "type": "bytes32"
        },
        {
          "internalType": "string",
          "name": "rollNo",
          "type": "string"
        },
        {
          "internalType": "string",
          "name": "name",
          "type": "string"
        }
      ],
      "name": "uploadDegree",
      "outputs": [],
      "stateMutability": "payable",
      "type": "function",
      "payable": true
    },
    {
      "inputs": [
        {
          "internalType": "bytes32",
          "name": "degreeHash",
          "type": "bytes32"
        }
      ],
      "name": "verifyDegree",
      "outputs": [
        {
          "internalType": "bool",
          "name": "",
          "type": "bool"
        }
      ],
      "stateMutability": "payable",
      "type": "function",
      "payable": true
    },
    {
      "inputs": [
        {
          "internalType": "bytes32",
          "name": "degreeHash",
          "type": "bytes32"
        }
      ],
      "name": "isDegreeExists",
      "outputs": [
        {
          "internalType": "bool",
          "name": "",
          "type": "bool"
        }
      ],
      "stateMutability": "view",
      "type": "function",
      "constant": true
    },
    {
      "inputs": [
        {
          "internalType": "string",
          "name": "rollNo",
          "type": "string"
        },
        {
          "internalType": "string",
          "name": "name",
          "type": "string"
        }
      ],
      "name": "getDegreeHashByRollNumberAndName",
      "outputs": [
        {
          "internalType": "bytes32",
          "name": "",
          "type": "bytes32"
        }
      ],
      "stateMutability": "view",
      "type": "function",
      "constant": true
    },
    {
      "inputs": [
        {
          "internalType": "bytes32",
          "name": "degreeHashData",
          "type": "bytes32"
        }
      ],
      "name": "revokeDegree",
      "outputs": [],
      "stateMutability": "nonpayable",
      "type": "function"
    }
  ],
  "bytecode": "0x60806040526509184e72a00060025534801561001a57600080fd5b50610e878061002a6000396000f3fe6080604052600436106100555760003560e01c8063568ef9911461005a5780635c750d561461008a57806372845783146100a657806391f19751146100e35780639dcf29931461010c578063ddca3f4314610149575b600080fd5b610074600480360381019061006f91906107cb565b610174565b6040516100819190610813565b60405180910390f35b6100a4600480360381019061009f9190610974565b6101e5565b005b3480156100b257600080fd5b506100cd60048036038101906100c891906107cb565b61045b565b6040516100da9190610813565b60405180910390f35b3480156100ef57600080fd5b5061010a600480360381019061010591906107cb565b610487565b005b34801561011857600080fd5b50610133600480360381019061012e91906109ff565b610653565b6040516101409190610a86565b60405180910390f35b34801561015557600080fd5b5061015e610698565b60405161016b9190610aba565b60405180910390f35b60006002543410156101bb576040517f08c379a00000000000000000000000000000000000000000000000000000000081526004016101b290610b32565b60405180910390fd5b60008083815260200190815260200160002060000160009054906101000a900460ff169050919050565b60025434101561022a576040517f08c379a000000000000000000000000000000000000000000000000000000000815260040161022190610b32565b60405180910390fd5b600060018360405161023c9190610bcc565b9081526020016040518091039020826040516102589190610bcc565b908152602001604051809103902054905060008082815260200190815260200160002060000160009054906101000a900460ff16156102d4578381146102d3576040517f08c379a00000000000000000000000000000000000000000000000000000000081526004016102ca90610c55565b60405180910390fd5b5b60405180608001604052806001151581526020013373ffffffffffffffffffffffffffffffffffffffff1681526020018481526020018381525060008086815260200190815260200160002060008201518160000160006101000a81548160ff02191690831515021790555060208201518160000160016101000a81548173ffffffffffffffffffffffffffffffffffffffff021916908373ffffffffffffffffffffffffffffffffffffffff16021790555060408201518160010190805190602001906103a392919061069e565b5060608201518160020190805190602001906103c092919061069e565b50905050836001846040516103d59190610bcc565b9081526020016040518091039020836040516103f19190610bcc565b9081526020016040518091039020819055503373ffffffffffffffffffffffffffffffffffffffff167f046cdd95e9fb8f953a0f7a38751c66e559447cc5d92a9236b8eeb681129cfcf785858560405161044d93929190610cae565b60405180910390a250505050565b600080600083815260200190815260200160002060000160009054906101000a900460ff169050919050565b60008190503373ffffffffffffffffffffffffffffffffffffffff1660008083815260200190815260200160002060000160019054906101000a900473ffffffffffffffffffffffffffffffffffffffff1673ffffffffffffffffffffffffffffffffffffffff161461052f576040517f08c379a000000000000000000000000000000000000000000000000000000000815260040161052690610d65565b60405180910390fd5b60008082815260200190815260200160002060000160009054906101000a900460ff16610591576040517f08c379a000000000000000000000000000000000000000000000000000000000815260040161058890610dd1565b60405180910390fd5b600080828152602001908152602001600020600080820160006101000a81549060ff02191690556000820160016101000a81549073ffffffffffffffffffffffffffffffffffffffff02191690556001820160006105ef9190610724565b6002820160006105ff9190610724565b50503373ffffffffffffffffffffffffffffffffffffffff167f7f6788e32b84d2b82cd7fcae935b64ed62604b4c148551a910b1cb41b54ee2a3826040516106479190610a86565b60405180910390a25050565b60006001836040516106659190610bcc565b9081526020016040518091039020826040516106819190610bcc565b908152602001604051809103902054905092915050565b60025481565b8280546106aa90610e20565b90600052602060002090601f0160209004810192826106cc5760008555610713565b82601f106106e557805160ff1916838001178555610713565b82800160010185558215610713579182015b828111156107125782518255916020019190600101906106f7565b5b5090506107209190610764565b5090565b50805461073090610e20565b6000825580601f106107425750610761565b601f0160209004906000526020600020908101906107609190610764565b5b50565b5b8082111561077d576000816000905550600101610765565b5090565b6000604051905090565b600080fd5b600080fd5b6000819050919050565b6107a881610795565b81146107b357600080fd5b50565b6000813590506107c58161079f565b92915050565b6000602082840312156107e1576107e061078b565b5b60006107ef848285016107b6565b91505092915050565b60008115159050919050565b61080d816107f8565b82525050565b60006020820190506108286000830184610804565b92915050565b600080fd5b600080fd5b6000601f19601f8301169050919050565b7f4e487b7100000000000000000000000000000000000000000000000000000000600052604160045260246000fd5b61088182610838565b810181811067ffffffffffffffff821117156108a05761089f610849565b5b80604052505050565b60006108b3610781565b90506108bf8282610878565b919050565b600067ffffffffffffffff8211156108df576108de610849565b5b6108e882610838565b9050602081019050919050565b82818337600083830152505050565b6000610917610912846108c4565b6108a9565b90508281526020810184848401111561093357610932610833565b5b61093e8482856108f5565b509392505050565b600082601f83011261095b5761095a61082e565b5b813561096b848260208601610904565b91505092915050565b60008060006060848603121561098d5761098c61078b565b5b600061099b868287016107b6565b935050602084013567ffffffffffffffff8111156109bc576109bb610790565b5b6109c886828701610946565b925050604084013567ffffffffffffffff8111156109e9576109e8610790565b5b6109f586828701610946565b9150509250925092565b60008060408385031215610a1657610a1561078b565b5b600083013567ffffffffffffffff811115610a3457610a33610790565b5b610a4085828601610946565b925050602083013567ffffffffffffffff811115610a6157610a60610790565b5b610a6d85828601610946565b9150509250929050565b610a8081610795565b82525050565b6000602082019050610a9b6000830184610a77565b92915050565b6000819050919050565b610ab481610aa1565b82525050565b6000602082019050610acf6000830184610aab565b92915050565b600082825260208201905092915050565b7f496e73756666696369656e742066656520706169642e00000000000000000000600082015250565b6000610b1c601683610ad5565b9150610b2782610ae6565b602082019050919050565b60006020820190508181036000830152610b4b81610b0f565b9050919050565b600081519050919050565b600081905092915050565b60005b83811015610b86578082015181840152602081019050610b6b565b83811115610b95576000848401525b50505050565b6000610ba682610b52565b610bb08185610b5d565b9350610bc0818560208601610b68565b80840191505092915050565b6000610bd88284610b9b565b915081905092915050565b7f546869732064656772656520697320616c72656164792075706c6f616465642060008201527f7769746820646966666572656e7420646174612e000000000000000000000000602082015250565b6000610c3f603483610ad5565b9150610c4a82610be3565b604082019050919050565b60006020820190508181036000830152610c6e81610c32565b9050919050565b6000610c8082610b52565b610c8a8185610ad5565b9350610c9a818560208601610b68565b610ca381610838565b840191505092915050565b6000606082019050610cc36000830186610a77565b8181036020830152610cd58185610c75565b90508181036040830152610ce98184610c75565b9050949350505050565b7f4f6e6c7920746865206f776e65722063616e207265766f6b652074686520646560008201527f677265652e000000000000000000000000000000000000000000000000000000602082015250565b6000610d4f602583610ad5565b9150610d5a82610cf3565b604082019050919050565b60006020820190508181036000830152610d7e81610d42565b9050919050565b7f44656772656520646f6573206e6f742065786973742e00000000000000000000600082015250565b6000610dbb601683610ad5565b9150610dc682610d85565b602082019050919050565b60006020820190508181036000830152610dea81610dae565b9050919050565b7f4e487b7100000000000000000000000000000000000000000000000000000000600052602260045260246000fd5b60006002820490506001821680610e3857607f821691505b602082108103610e4b57610e4a610df1565b5b5091905056fea2646970667358221220a5b4e33f95393fcd67853cd8a46a67019b6566725d5ba3f7d332e3696505d4b464736f6c634300080d0033",
  "immutableReferences": {},
  "source": "// SPDX-License-Identifier: MIT\r\npragma solidity ^0.8.13;\r\n\r\ncontract DegreeVerification {\r\n    struct Degree {\r\n        bool exists;\r\n        address owner;\r\n        string rollNo;\r\n        string name;\r\n    }\r\n\r\n    mapping(bytes32 => Degree) private degrees;\r\n    mapping(string => mapping(string => bytes32)) private rollNoToHash; \r\n    uint public fee = 0.00001 ether; \r\n\r\n    // Event when a degree is uploaded\r\n    event DegreeUploaded(bytes32 degreeHash, address indexed owner, string rollNo, string name);\r\n    \r\n    // Event when a degree is revoked\r\n    event DegreeRevoked(bytes32 degreeHash, address indexed owner);\r\n\r\n    // Modifier to ensure the user pays the correct fee\r\n    modifier requiresFee() {\r\n        require(msg.value >= fee, \"Insufficient fee paid.\");\r\n        _;\r\n    }\r\n\r\n    // Function to upload or update degree (requires fee)\r\n    function uploadDegree(bytes32 degreeHash, string memory rollNo, string memory name) external payable requiresFee {\r\n    bytes32 existingHash = rollNoToHash[rollNo][name];\r\n    if (degrees[existingHash].exists) {\r\n        require(existingHash == degreeHash, \"This degree is already uploaded with different data.\");\r\n    }\r\n\r\n    degrees[degreeHash] = Degree({\r\n        exists: true,\r\n        owner: msg.sender,\r\n        rollNo: rollNo,\r\n        name: name\r\n    });\r\n\r\n    rollNoToHash[rollNo][name] = degreeHash;\r\n\r\n    emit DegreeUploaded(degreeHash, msg.sender, rollNo, name);\r\n}\r\n\r\n\r\n    // Function to verify a degree (requires fee)\r\n    function verifyDegree(bytes32 degreeHash) external payable requiresFee returns (bool) {\r\n        return degrees[degreeHash].exists;\r\n    }\r\n\r\n    // Function to check if a degree exists\r\n    function isDegreeExists(bytes32 degreeHash) external view returns (bool) {\r\n        return degrees[degreeHash].exists;\r\n    }\r\n\r\n    // Function to retrieve the degree hash by roll number and name\r\n    function getDegreeHashByRollNumberAndName(string memory rollNo, string memory name) external view returns (bytes32) {\r\n        return rollNoToHash[rollNo][name];\r\n    }\r\n\r\n    // Function to revoke a degree by roll number and name\r\n    function revokeDegree(bytes32 degreeHashData) external {\r\n        bytes32 degreeHash = degreeHashData;\r\n        require(degrees[degreeHash].owner == msg.sender, \"Only the owner can revoke the degree.\");\r\n        require(degrees[degreeHash].exists, \"Degree does not exist.\");\r\n\r\n        // Delete the degree and roll number-to-hash mapping\r\n        delete degrees[degreeHash];\r\n\r\n        emit DegreeRevoked(degreeHash, msg.sender);\r\n    }\r\n    \r\n}\r\n",
  "sourcePath": "E:\\cs50\\final-project\\cs50Certify\\contracts\\DegreeVerification.sol",
  "compiler": {
    "name": "solc",
    "version": "0.8.13+commit.abaa5c0e.Emscripten.clang"
  },
  "schemaVersion": "3.4.16",
  "updatedAt": "2024-12-31T07:01:02.622Z",
  "networkType": "ethereum",
  "devdoc": {
    "kind": "dev",
    "methods": {},
    "version": 1
  },
  "userdoc": {
    "kind": "user",
    "methods": {},
    "version": 1
  }
}